{"abi":[{"type":"constructor","inputs":[],"stateMutability":"nonpayable"},{"type":"function","name":"latestBlockHeight","inputs":[],"outputs":[{"name":"","type":"uint256","internalType":"uint256"}],"stateMutability":"view"},{"type":"function","name":"latestStateRoot","inputs":[],"outputs":[{"name":"","type":"bytes32","internalType":"bytes32"}],"stateMutability":"view"},{"type":"function","name":"owner","inputs":[],"outputs":[{"name":"","type":"address","internalType":"address"}],"stateMutability":"view"},{"type":"function","name":"updateStateRoot","inputs":[{"name":"blockHeight","type":"uint256","internalType":"uint256"},{"name":"stateRoot","type":"bytes32","internalType":"bytes32"}],"outputs":[],"stateMutability":"nonpayable"},{"type":"function","name":"verifyInclusion","inputs":[{"name":"leaf","type":"bytes32","internalType":"bytes32"},{"name":"proof","type":"bytes32[]","internalType":"bytes32[]"}],"outputs":[{"name":"","type":"bool","internalType":"bool"}],"stateMutability":"view"},{"type":"event","name":"StateRootUpdated","inputs":[{"name":"blockHeight","type":"uint256","indexed":true,"internalType":"uint256"},{"name":"stateRoot","type":"bytes32","indexed":false,"internalType":"bytes32"}],"anonymous":false}],"bytecode":{"object":"0x6080604052348015600e575f5ffd5b50600280546001600160a01b031916331790556103498061002e5f395ff3fe608060405234801561000f575f5ffd5b5060043610610055575f3560e01c806367c6c8bc146100595780638da5cb5b14610081578063991beafd146100ac578063db33005a146100c2578063f3f39ee5146100d7575b5f5ffd5b61006c610067366004610265565b6100e0565b60405190151581526020015b60405180910390f35b600254610094906001600160a01b031681565b6040516001600160a01b039091168152602001610078565b6100b45f5481565b604051908152602001610078565b6100d56100d03660046102df565b610182565b005b6100b460015481565b5f83815b83811015610176575f8585838181106100ff576100ff6102ff565b90506020020135905080831161014057604080516020810185905290810182905260600160405160208183030381529060405280519060200120925061016d565b60408051602081018390529081018490526060016040516020818303038152906040528051906020012092505b506001016100e4565b505f5414949350505050565b6002546001600160a01b031633146101d25760405162461bcd60e51b815260206004820152600e60248201526d139bdd08185d5d1a1bdc9a5e995960921b60448201526064015b60405180910390fd5b60015482116102235760405162461bcd60e51b815260206004820152601a60248201527f426c6f636b20686569676874206d75737420696e63726561736500000000000060448201526064016101c9565b5f819055600182905560405181815282907f81c72bbfba8aa5c196bf46c414765acaeb81b0c575e622425873c001dc6f350d9060200160405180910390a25050565b5f5f5f60408486031215610277575f5ffd5b83359250602084013567ffffffffffffffff811115610294575f5ffd5b8401601f810186136102a4575f5ffd5b803567ffffffffffffffff8111156102ba575f5ffd5b8660208260051b84010111156102ce575f5ffd5b939660209190910195509293505050565b5f5f604083850312156102f0575f5ffd5b50508035926020909101359150565b634e487b7160e01b5f52603260045260245ffdfea26469706673582212205bffb340360b9f8e97e995fcc1b8d1a18b41dbef621ba7e758f9f4122cc4769164736f6c634300081d0033","linkReferences":{}},"methodIdentifiers":{"latestBlockHeight()":"f3f39ee5","latestStateRoot()":"991beafd","owner()":"8da5cb5b","updateStateRoot(uint256,bytes32)":"db33005a","verifyInclusion(bytes32,bytes32[])":"67c6c8bc"},"id":19}