{"abi":[{"type":"constructor","inputs":[],"stateMutability":"nonpayable"},{"type":"function","name":"latestBlockHeight","inputs":[],"outputs":[{"name":"","type":"uint256","internalType":"uint256"}],"stateMutability":"view"},{"type":"function","name":"latestStateRoot","inputs":[],"outputs":[{"name":"","type":"bytes32","internalType":"bytes32"}],"stateMutability":"view"},{"type":"function","name":"owner","inputs":[],"outputs":[{"name":"","type":"address","internalType":"address"}],"stateMutability":"view"},{"type":"function","name":"updateStateRoot","inputs":[{"name":"blockHeight","type":"uint256","internalType":"uint256"},{"name":"stateRoot","type":"bytes32","internalType":"bytes32"}],"outputs":[],"stateMutability":"nonpayable"},{"type":"function","name":"verifyInclusion","inputs":[{"name":"","type":"bytes32","internalType":"bytes32"},{"name":"","type":"bytes32[]","internalType":"bytes32[]"}],"outputs":[{"name":"","type":"bool","internalType":"bool"}],"stateMutability":"view"},{"type":"event","name":"StateRootUpdated","inputs":[{"name":"blockHeight","type":"uint256","indexed":true,"internalType":"uint256"},{"name":"stateRoot","type":"bytes32","indexed":false,"internalType":"bytes32"}],"anonymous":false}],"bytecode":{"object":"0x6080604052348015600e575f5ffd5b50600280546001600160a01b031916331790556102978061002e5f395ff3fe608060405234801561000f575f5ffd5b5060043610610055575f3560e01c806367c6c8bc146100595780638da5cb5b14610085578063991beafd146100b0578063db33005a146100c6578063f3f39ee5146100db575b5f5ffd5b6100706100673660046101c7565b60019392505050565b60405190151581526020015b60405180910390f35b600254610098906001600160a01b031681565b6040516001600160a01b03909116815260200161007c565b6100b85f5481565b60405190815260200161007c565b6100d96100d4366004610241565b6100e4565b005b6100b860015481565b6002546001600160a01b031633146101345760405162461bcd60e51b815260206004820152600e60248201526d139bdd08185d5d1a1bdc9a5e995960921b60448201526064015b60405180910390fd5b60015482116101855760405162461bcd60e51b815260206004820152601a60248201527f426c6f636b20686569676874206d75737420696e637265617365000000000000604482015260640161012b565b5f819055600182905560405181815282907f81c72bbfba8aa5c196bf46c414765acaeb81b0c575e622425873c001dc6f350d9060200160405180910390a25050565b5f5f5f604084860312156101d9575f5ffd5b83359250602084013567ffffffffffffffff8111156101f6575f5ffd5b8401601f81018613610206575f5ffd5b803567ffffffffffffffff81111561021c575f5ffd5b8660208260051b8401011115610230575f5ffd5b939660209190910195509293505050565b5f5f60408385031215610252575f5ffd5b5050803592602090910135915056fea264697066735822122029c3e74fed2c03bce95d02bc5afcc6d35d616406353338fdbc38b98ce6c61ace64736f6c634300081d0033","linkReferences":{}},"methodIdentifiers":{"latestBlockHeight()":"f3f39ee5","latestStateRoot()":"991beafd","owner()":"8da5cb5b","updateStateRoot(uint256,bytes32)":"db33005a","verifyInclusion(bytes32,bytes32[])":"67c6c8bc"},"id":19}